:020000040800F2
:10000000E00B0020D5000008091D0008CF180008EB
:1000100000000000000000000000000000000000E0
:100020000000000000000000000000000F21000898
:100030000000000000000000511D0008CF2500084E
:10004000E7000008E7000008E7000008E7000008F4
:10005000E7000008E5020008E7000008E7000008E4
:1000600000000000E7000008E7000008E7000008C3
:10007000E7000008E700000800000000E7000008B3
:100080000000000000000000000000000000000070
:10009000E700000800000000E7000008E700000893
:1000A00000000000E7000008000000000000000061
:1000B000612B0008D11800080000000000000000BB
:1000C0000348854600F0AEF8004800475933000861
:1000D000E00B00200448804704480047FEE7FEE7A5
:1000E000FEE7FEE7FEE7FEE771260008C100000814
:1000F00030B50B46014600202022012409E00D46C0
:10010000D5409D4205D31D469540491B2546954047
:1001100040191546521E002DF1DC30BDF0B51FB45C
:100120000646002082B005464024019100901BE065
:10013000019922460F46304600F062F8049A059B6A
:10014000801A994110D310461946224600F048F80B
:10015000361A8F410197224601200021009F00F0AE
:100160003FF838184D4100902046641E0028DFDC1F
:10017000019B00982946324607B0F0BD10B5431ADE
:10018000934209D28318881803E0401E01785B1E51
:100190001970521EF9D210BD03460B439B0703D0C2
:1001A00009E008C9121F08C0042AFAD203E00B783C
:1001B0000370401C491C521EF9D210BDD2B201E09E
:1001C0000270401C491EFBD270470022F6E710B5B2
:1001D00013460A4604461946FFF7F0FF204610BDB5
:1001E00010B5202A04DB0146203A9140002010BDC2
:1001F000914020239C1A0346E3401943904010BDD0
:1002000010B5202A04DB0846203AD040002110BD5A
:100210000B46D340D0402024A21A914008431946EF
:1002200010BD0000064C0125064E05E0E36807CC32
:100230002B430C3C98471034B442F7D3FFF744FFEC
:10024000703B0008903B000810B510220A490B488B
:10025000FFF794FF08490948032211311030FFF7D6
:100260008DFF0648203801F015FE04480449203867
:1002700003F024F810BD00000C000020B40400209E
:10028000E403002070B504460C4800220C4E11E037
:100290002578521C2B4643401B07DB0EF35A0009FE
:1002A0004340280958400007C00E305A1B095840E7
:1002B00092B2641C8A42EBD370BD0000FFFF0000C5
:1002C000E4360008064BC01803E003780B70401CAE
:1002D000491C1346521E92B2002BF6D17047000003
:1002E0000000080810B5012000F0FEF910BD000064
:1002F00000B593B0302106A8FFF767FF0B490FC97F
:10030000059302AB07C302A800F08CF86946087099
:100310000146012301AA02A800F00AF86A46002358
:10032000117902A800F004F813B000BD24370008CA
:10033000FFB50446C07983B00609050760792D0F23
:10034000000609D50698002806D004980622211830
:1003500068460939FFF712FF002713E006980028C6
:1003600007D038010119083108462D4A02F0A1FDD5
:1003700006E0380100190830294A014602F0F7FE6C
:100380007F1CFFB2B742E9D3002D26D00698002883
:1003900018D0002033015A1910210746491B04E0E8
:1003A00016183619401C3772C0B28142F8DC191990
:1003B000083108461A4A02F07CFD0498401B1030B0
:1003C000C5B20BE03001011908310846144A02F0A9
:1003D000CEFE049840191038F2E7049D60790006BB
:1003E0000CD50698002809D0E17920460830081875
:1003F00006226946FFF7C2FEAD1DEDB2E81E81B2CE
:100400002046FFF73FFF020A611920394A778877B3
:100410005320C87705980570002007B0F0BD000094
:10042000E403002070B50446AC202070A079DF21E1
:100430000840A071E0790830C5B229462046FFF790
:1004400021FF010A61556D1CE9B26054491CC8B214
:1004500053212154401CC0B270BD70B50546002028
:1004600001F0ACFD0526360700221021304600F0D1
:10047000FBF90024285D01F0DFFD641CE4B2082CC8
:10048000F8D301221021304600F0EEF970BDFFB51F
:10049000054681B01C461746002001F08FFD052659
:1004A000360700221021304600F0DEF9202001F04E
:1004B000C3FD029801F0C0FD384601F0BDFD2046A5
:1004C00001F0BAFD01221021304600F0CDF90120E3
:1004D00001F074FD0024AA2001F0AEFD2855641C33
:1004E000E4B2082CF7D301221021304600F0BCF909
:1004F00005B0F0BD70B5002001F060FD05252D07A9
:1005000000221021284600F0AFF9222001F094FDCE
:1005100001221021284600F0A7F9012001F04EFD2C
:10052000AA2001F089FD134C2070AA2001F084FD5F
:100530006070AA2001F080FDA070AA2001F07CFD6F
:10054000E070AA2001F078FD2071AA2001F074FD6E
:100550006071AA2001F070FD0002E080AA2001F085
:100560006BFDE1880843E08001221021284600F05D
:100570007BF970BDD007002070B5002001F01EFD92
:1005800005252D0700221021284600F06DF90120D5
:1005900001F052FD01221021284600F065F90120EA
:1005A00001F00CFDAA2001F047FD154C2070AA2097
:1005B00001F042FD00026080AA2001F03DFD61884B
:1005C00008436080AA2001F037FD2071AA2001F0C5
:1005D00033FD0002E080AA2001F02EFDE1880843EF
:1005E000E080AA2001F028FD2072AA2001F024FD5D
:1005F000607201221021284600F036F970BD00001B
:10060000D00700200A2101700B2141700349044AE0
:100610008B7AD3714078085C107270477539000886
:100620006600002070B5002402462032517902296C
:1006300003D00421C16301243CE001680B680E254E
:10064000AB430B6001680B685B085B000B601A4BE7
:100650000168994201D1012121E0174B14339942DD
:1006600001D110211BE0144B2833994201D1891587
:1006700015E0114B3C33994201D189140FE00E4B28
:100680005033994202D10121090408E00A4B643336
:10069000994202D10121090501E001210906064B19
:1006A000083B59600121517100211171816B0029B2
:1006B00000D08847204670BD0800024031B500F0E8
:1006C000D9F8044600F0D6F80099001B8842F9D307
:1006D00038BD000010B5012802D1024801F036FDF6
:1006E00010BD0000CA04002010B504494A69024246
:1006F00002D04861FFF7EEFF10BD0000000401408A
:10070000F8B5002301249DE027469F403A4070D071
:100710004D68022D01D0122D14D1DD08AD002D1829
:1007200000952D6A5E07AC46F50E0F26AE46AE402C
:100730006546B543AC460E697546AE4065462E43E8
:10074000009D2E624D68012D05D0022D03D0112D84
:1007500001D0122D16D185680326AC465D00AE4649
:10076000AE406546B543AC46CE687546AE4065467C
:100770002E43866046680D79BE43ED06ED0F9D4021
:100780003543456006685F000325BD40AE46AE4375
:100790000D79B446AE07B60FBE4065462E430660DF
:1007A000C6687546AE438D68BD403543C5604D682B
:1007B000ED0046D5264D6E6B26436E639E08254D93
:1007C000B6007519AC46AD689E07360F0F27B740C7
:1007D000BD4305273F07B84201D1002710E01E4F57
:1007E000B84201D101270BE01C4FB84202D10227C9
:1007F00006E026E01A4FB84201D1052700E006279F
:10080000B7402F436546AF60164D2E684F6896433C
:10081000FF0300D516432E606E684F689643BF03F2
:1008200000D516436E60AE684F689643FF0200D550
:100830001643AE60EE684F689643BF0200D516437C
:10084000EE605B1C0A681546DD4000D05CE7F8BD31
:100850000010024000000140000400500008005059
:10086000001C005000040140002A01D08161704743
:10087000816270470148006870470000280000202E
:1008800002480168491C01607047000028000020F0
:1008900010B506480168402211430160002000F0B5
:1008A00007F800F019F8002010BD000000200240F9
:1008B00010B5044607487D21C9000068FFF718FC01
:1008C00000F046FE00222146501E00F02BF80020CA
:1008D00010BD00002C00002010B50C48416B012217
:1008E00011434163816B020411438163002211466D
:1008F000501F00F017F800221146901E00F012F869
:1009000000221146501E00F00DF810BD00100240EC
:10091000C106C90E012088400149086070470000E7
:1009200000E100E010B501F0F1F910BDF8B53A4969
:10093000034601240020E403364D374A4031022BA0
:1009400031D0042B49D0082B56D0202B0BD10B696A
:10095000096903252D0429406700A600B94203D187
:1009600099052CE02046F8BDB14203D19907FAD58C
:100970002A48F8BDA942FCD111688903F9D511684C
:1009800003200005014001200005091A09D0091AB9
:1009900005D0814201D12248F8BD2248F8BD224845
:1009A000F8BD2248F8BDCB680C2633400AD0082B8E
:1009B0000BD0042B0ED00C2BF4D10969890500292A
:1009C000D0DBF8BD00F096F9F8BD11684907FBD5FA
:1009D0002846F8BD00F0AEF9F8BDCB680326B60294
:1009E0003340EFD00127FF02BB42EED07A10934292
:1009F000F0D0B342E1D0F8BDC96803231B0319400E
:100A0000E0D0012464036310A142DED09942E1D01A
:100A1000F8BD00000024F40000100240889000009F
:100A200020A1070000093D0040420F0080841E0005
:100A3000F8B5044600784F4D800672D54D4E00271C
:100A4000403EB06BC00004D4B06BA9050843B0634E
:100A5000012749480168C90511D40168821511436D
:100A60000160FFF707FF009005E0FFF703FF009923
:100A7000401A642837D840480068C005F5D5326868
:100A80000321090560680A400140914208D08103B2
:100A9000890F032904D13168890301D50120F8BDEC
:100AA0002A69032109040A4022D0084090421FD03D
:100AB000207880061CD528692A6988430121C90449
:100AC0000A432A612A698A432A612861C0050FD531
:100AD000FFF7D0FE009008E0FFF7CCFE0099411A26
:100AE0002648814201D90320F8BD28698005F3D545
:100AF00061688803800F032805D1326800058243AE
:100B000001400A43326028690322616812041140DF
:100B100008432861002F04D0B16B012000078143F6
:100B2000B1632078800705D5E8680C218843A16867
:100B30000843E8602078400706D5E8680321890269
:100B40008843E1680843E8602078000706D5E86834
:100B500003210903884321690843E86020780006DF
:100B600006D5E86803218904884361690843E86081
:100B70000020F8BD401002400070004088130000C3
:100B8000F8B5054653480E460068C007C00FB0428E
:100B90000AD25048016849084900314301600068A1
:100BA000C007C00FB0426FD128784B4C800705D5E5
:100BB000E068F0218843A9680843E0602878C0070E
:100BC00052D06868022817D0032818D0216801285D
:100BD00018D08905002957DAE1688908890001439E
:100BE000E160FFF747FE69680746022912D0032932
:100BF0001CD0012926D033E021688903EAE7216867
:100C00008901E7E74907E5E7FFF734FEC11B3348F1
:100C1000814223D8E0680007800F0228F4D123E046
:100C2000FFF728FEC11B2D48814217D8E068000756
:100C3000800F0328F4D117E0FFF71CFEC11B2748E3
:100C400081420BD8E0680007800F0128F4D10BE047
:100C5000FFF710FEC11B2148814201D90320F8BDD6
:100C6000E0680007800FF3D11A480168C907C90F6F
:100C7000B1420BD90168490849003143016000685D
:100C8000C007C00FB04201D00120F8BD287840074E
:100C900006D5E068072109028843E9680843E06057
:100CA0002878000707D5E0680721C9028843296929
:100CB000C9000843E06000F03DF8E168084A090611
:100CC000090F515CC840074908600020FFF7F0FD9C
:100CD0000020F8BD002002400010024088130000F0
:100CE000543900082C0000200148006870470000BB
:100CF0002C000020044805490068C968044A4905D9
:100D0000490F515CC84070472C0000200010024081
:100D10006D390008044805490068C968044A890417
:100D2000490F515CC84070472C0000200010024061
:100D30006D39000810B5184AD1680C200840042805
:100D40000BD0082810D00C2810D050680004410F98
:100D50000120C003491C884010BD1068C00601D5A1
:100D60000E4810BD0E4810BD0E4810BD88020E4B37
:100D7000000F185C0902D368890F491CDB0301D5F9
:100D8000084A05E01268D20601D5044A00E0044A88
:100D90005043FFF7ADF910BD0010024000093D00BF
:100DA0000024F40000127A0064390008F8B5044603
:100DB0000078F24DC0074AD0E8680007800F02288B
:100DC00007D0E8680007800F032809D1E868C0034E
:100DD00006D5286880033AD56068002873D036E0CD
:100DE000012062680004824203D12968014329601E
:100DF00011E0052301211B0489049A422A6802D1CB
:100E00000A432A60F1E782432A602A68024000927E
:100E1000286888432860606800280CD0FFF72AFD06
:100E2000064604E0FFF726FD801B64287ED828686C
:100E30008003F7D50BE0FFF71DFD064604E0FFF742
:100E400019FD801B6428F1D828688003F7D4207826
:100E5000800741D5E8681F270007800F3F0201285F
:100E600007D0E8680007800F032809D1E868C003AD
:100E700006D42868400717D5E068012823D113E07D
:100E8000E068002817D029680922914301432960AE
:100E9000FFF7F0FC064604E0FFF7ECFC801B02289D
:100EA000C4D828684007F7D568682169B8430902A3
:100EB0000843686010E02868400840002860FFF799
:100EC000D9FC064605E090E0FFF7D4FC801B022821
:100ED000ACD828684007F7D42078C00676D5E868F3
:100EE000A74E0007800F0BD0A06900285DD02868AE
:100EF000FF21013108432860FFF7BCFC074644E0AE
:100F00002868800502D5A06900286ED0206A69682B
:100F10003140884212D900F01DFF0028AED1686828
:100F2000216AB04308436860686800E0BBE00002E3
:100F3000217F000A0906084368600FE06968B14331
:100F4000014369606868217F0002000A09060843BE
:100F50006860206A00F0FEFE00288FD1206A410BF5
:100F60000120C003491C8840E96809060A0F854929
:100F7000895CC840844908600020FFF799FC25E09F
:100F8000FFF778FCC01B02288AD828688005F7D5AF
:100F90006868216AB043084368606868217F00027E
:100FA000000A09060843686010E02968FF20013044
:100FB00081432960FFF75EFC064604E0FFF75AFC18
:100FC000801B02286FD828688005F7D420786F4EE0
:100FD000000723D560690028306910D0012108433B
:100FE0003061FFF747FC074605E0C5E0FFF742FC2C
:100FF000C01B022857D830698007F7D50EE040089B
:1010000040003061FFF736FC074604E0FFF732FC92
:10101000C01B022847D830698007F7D420784007E2
:1010200062D5A86B0027C00005D4A86B0121090771
:101030000843A863012756480168C90511D401680F
:10104000821511430160FFF715FC009005E0FFF7E2
:1010500011FC0099401A642825D84D480068C00545
:10106000F5D5FF20A2680130824203D131690143E6
:10107000316111E001218902002A07D005231B02FA
:101080009A4203D132690A433261EFE732698243FF
:101090003261306988433061A06800280FD0FFF7C3
:1010A000E9FB009007E060E0FFF7E4FB0099411ADC
:1010B0003848814259D830698005F5D50DE0FFF7F1
:1010C000D9FB009006E0FFF7D5FB0099411A3148A3
:1010D00081424AD830698005F5D4002F04D0A96B2D
:1010E000012000078143A963606A002842D0E968B3
:1010F0000907890F03293FD00126360602282868F0
:1011000005D0B0432860FFF7B5FB04462FE0B0439D
:101110002860FFF7AFFB074604E0FFF7ABFBC01BFF
:10112000022822D828688001F7D4E16AA06AEA6818
:101130000843216BFD231B049A4311430843E860D5
:10114000286830432860FFF795FB044604E0FFF76A
:1011500091FB001B022808D828688001F7D509E018
:10116000FFF788FB001B022801D90320F8BD28687F
:101170008001F5D40020F8BD0120F8BD0010024028
:1011800000E00000543900082C000020401002400C
:10119000007000408813000070B5040006D025469A
:1011A0004035687C0026002802D005E0012070BD93
:1011B0002E74204600F02EF8022068742068016822
:1011C000402291430160A168606822690843E16898
:1011D00011430843616901220843A1695202114089
:1011E0000843E1690843216A0843A16A084321686A
:1011F0000860A0690421000C0840616A0843216866
:1012000048602168E06A0861666501206874002012
:1012100070BD000000B500680C4985B0884212D14D
:101220000B48416B821411434163E020009002207F
:10123000019000210320039002910491052069464A
:101240000007FFF75DFA05B000BD00000030014067
:1012500000100240F8B5044600276846078026467D
:101260004036707C012802D0707C22287ED1002973
:101270000CD0002A0AD0002B08D0307C012875D071
:1012800001203074707C012802D003E00120F8BDF9
:10129000322070746765A263A387E3872163A38606
:1012A000E386A764E7640125A06A6D03A84207D11D
:1012B00020680168A9430160206801682943016032
:1012C00020680168490603D4016840221143016087
:1012D0000121FF20E268C90205308A42616866D1B7
:1012E000002904D081420CD1E08E012809D1206B65
:1012F00021680088C860206B801C2063E08E401E3F
:10130000E086E08E002843D1A06AA84246D120683A
:10131000016801221203114301603FE02068C068A8
:10132000A16B0880A06B801CA063B0E000220221AA
:101330002046069B00F092FE00287DD1206B21689C
:101340000088C860206B801C2063E08E401EE08611
:10135000E08E002808D1A06AA84205D12068016863
:101360000122120311430160002200E0CCE00121C0
:101370002046069B00F072FE00287FD12068C068DE
:10138000A16B0880A06B801CA063E08F401EE087EB
:10139000E08E0028CAD1606800287BD1002201219C
:1013A0002046069B00F05AFE002867D1B6E70029C8
:1013B00004D081420BD1E08E012808D1206B411C62
:1013C000216321680078C860E08E401EE086E08ED0
:1013D000002845D1A06AA84205D1206801680122F1
:1013E000120311430160002201212046069B00F0F8
:1013F00035FE002842D12068C068A16B087046E025
:10140000002202212046069B00F028FE002835D14C
:10141000206B411C216321680078C860E08E401E6B
:10142000E086E08E00280AD1A06AA84207D1206891
:1014300002680121090300E020E00A430260002263
:1014400001212046069B00F009FE002816D12068E5
:10145000C268A06B411CA1630270E08F401EE08750
:10146000E08E0028CCD16068002813D10022012131
:101470002046069B00F0F2FD002802D00320F8BDB4
:1014800008E02068C168A06B421CA2630170E08F75
:10149000401EE087A06AA8420FD100220121204609
:1014A000069B00F0DBFD002802D0606D02210EE0FB
:1014B0002068C0686946088008880122802120468B
:1014C000069B00F0CBFD002804D0606D202108436E
:1014D0006065D3E701207074A06AA84211D120682A
:1014E0008168C943C9060CD4616D0222114361654C
:1014F0000168A943016020680168294301603774CD
:10150000C4E637740020BAE70220B8E70422044991
:101510000428086902D09043086170471043FBE734
:1015200000E000E00948417C491CC9B241741E2911
:101530000BD901462039CA8D002A06D08A8500229F
:10154000CA85017C01221143017470479A02002070
:10155000094910B5401E884201D9012010BD074C31
:1015600060610321081F00F0D1FB0020A06107206B
:101570002061002010BD0000FFFFFF0000E000E040
:1015800010B5FFF7CFFF10BD7047704701466031BF
:10159000487A897A08437047F8B502680446D069EA
:1015A00011680607360F07D1830605D58B0603D5CC
:1015B000204601F036F9F8BD95682023002E65D04D
:1015C000EE07F60FFF2721370F4037435ED0C707DE
:1015D00006D0CF0504D501271762E26E3A43E266D2
:1015E000820708D5EA0706D0276802223A62E26E2F
:1015F00004273A43E266420708D5EA0706D0256881
:1016000004222A62E26E02252A43E266020709D515
:101610000A461A40324305D0236808221A62E36E54
:101620001343E366E26E002AC5D0800604D588061F
:1016300002D5204601F0F5F8E06E000703D42068DB
:10164000806840061CD5204601F0DCF820688168DF
:10165000490611D5826840218A438260606E002865
:101660000AD01D498163606EFEF7DCFF0028A2D01E
:10167000606E816B8847F8BD2046FFF786FFF8BD96
:101680002046FFF782FF0020E066F8BD2646C7022D
:101690006036002F0ADA6D0208D5012000051062BD
:1016A0007372B3722046FFF76FFFF8BD050605D5CC
:1016B0000D0603D5204601F0EFF9F8BD4006FCD534
:1016C0004806FAD52046146840218C431460737292
:1016D00000F0FCF8F8BD0000F127000870B5040028
:1016E00005D025466035687A002802D006E0012042
:1016F00070BD00202872204600F026F82420687271
:1017000020680168490849000160606A002802D029
:10171000204600F0D7FF204601F0C2F80128E7D0AC
:10172000206841680922D2029143416020688168A3
:101730002A229143816020680168012211430160DF
:10174000204601F025F870BD30B51E4D046800201C
:101750001D490223032285B0AC4216D18C6B5D0477
:101760002C438C63029006200C21049000910520EC
:101770000193039269460007FEF7C2FF002211465B
:101780001D20FFF7CFF81D2017E0104DAC4216D1F9
:101790008C6B01256D042C438C63C0210290009159
:1017A00004900193039269460948FEF7A9FF0022BD
:1017B00011461C20FFF7B6F81C20FFF7A9F805B06A
:1017C00030BD0000004800400010024000440040CE
:1017D00000040050F0B5034660339C7A202C44D1BD
:1017E00000290BD0002A09D0012584682D03AC42C2
:1017F00006D10669002E03D1CE0701D00120F0BD2D
:101800001E7A012E31D001261E72416501464031FB
:101810000A834A83FF27AC4204D10269002A12D10D
:10182000134A0EE07F22002C08D001252D07AC4280
:101830000AD10469002C04D03F2202E00469002C84
:1018400001D08A8300E08F830021C16622229A7230
:10185000197201688A6832438A6000680168FF2251
:101860002132114301600020F0BD0220F0BD0000D4
:10187000FF01000010B50F4A016891420FD10E49D7
:101880000A7CD2070BD14A740C490A780A492039DC
:10189000CB8DCC1FF93CE254CA8D521CCA8500681E
:1018A0000749884204D108480649007801F0A4F9A4
:1018B00010BD0000004800409A02002021000020D6
:1018C0000044004078000020200000207047FEE720
:1018D00010B50848FFF760FE0648FFF757FE2028BE
:1018E000FAD1012204490348FFF774FF0028F8D118
:1018F00010BD0000AC0200202100002030B5002304
:101900000BE0C55CCC5CA54201D9012030BDA542ED
:1019100001D2022030BD5B1CDBB29342F1D3002028
:1019200030BDF3B50C461121204600F02BF90146DD
:101930001120411ACEB2801BC2B2A1190D460098E7
:1019400000F0F0F800241220871B07E00098FAB29C
:10195000691E001900F0E6F8641CE4B2B442F5D345
:10196000FCBD0021421852784254491CC9B21029CA
:10197000F8D300210174704770B50024012B0ED0FC
:101980001023C518203DED7F4D432C19A4B2D4542B
:101990005B1E240A1B061B0EF3D1147070BD1023AE
:1019A000C518203DED7FD65C4D43AD192C19A4B26E
:1019B000D4545B1E240A1B061B0EF1D110780019AB
:1019C000107070BDFFB50C4616461021204600F081
:1019D000D9F81021091A0D1900210A467254491C20
:1019E000C9B21129FAD30024471E11E0012332465F
:1019F0000098FFF7C1FF30460399FFF792FF30468A
:101A0000FFF7AFFF30460399FFF78BFF641CE4B28A
:101A1000295DBC42EADB012332460098FFF7ACFFA8
:101A200030460399FFF77DFFFFBD0000FFB583B08F
:101A30001D46174608261021104600F0A3F80400A2
:101A40006BD0102204990398FEF798FB1020001B1E
:101A5000C019009000780021020607D44006761EC7
:101A6000491C000EC9B2F6B20829F5D34006070E8C
:101A7000761EF0B2002601901BE003992A46084624
:101A80000C9BFFF79FFF1022691C0398FEF776FB63
:101A900038060AD52A460C9B03990498FFF792FF53
:101AA0001022691C0398FEF769FB7806070E761C66
:101AB000F6B201988642E0D300980021401C0090C5
:101AC0001748671E017024E0009A0024565C0399B1
:101AD0002A4608460C9BFFF775FF1022691C0398E5
:101AE000FEF74CFB30060AD52A460C9B0399049856
:101AF000FFF768FF1022691C0398FEF73FFB700692
:101B0000641C060EE4B2082CE1D305480178491C98
:101B1000017003480178B942D6DB07B0F0BD000080
:101B200022000020F0B517460C46054622E00020B2
:101B30003A461DE0AE18A118203E2039F37FC97F38
:101B4000994207D1002803D0591A491EC9B20CE0A6
:101B500000210AE0994204D2181A401AC1B20020AA
:101B600003E0181A401AC1B20120521EF177D2B216
:101B7000002ADFD13A4621462846FFF7BFFE022859
:101B8000D5D1F0BD002207E0835C002B02D0881A7B
:101B9000C0B27047521CD2B28A42F5D300207047BF
:101BA0001FB5002400940194029410226946204637
:101BB0000394FEF787FB641CE4B2102CFBD31FBD1B
:101BC000F0B51F4887B0C16A01252943C162C16AC7
:101BD00029400591C16A02242143C162C06A0527D8
:101BE00020403F070590002210213846FEF73CFEBA
:101BF000002202211348FEF737FE102000266A4615
:101C0000039461C269463846FEF77AFD0E4801909A
:101C10006946029600950B48FEF772FD684670C053
:101C2000694608480394FEF76BFD00221146052023
:101C3000FEF778FE0520FEF76BFE07B0F0BD000052
:101C400000100240000400500000211010B50B48A5
:101C5000094901604B21C901416000218160C160D7
:101C6000016181610C22016242614162FFF736FD30
:101C7000002800D0FEE710BD00480040AC02002064
:101C800010B50E480C490160FF210531416000216B
:101C90008160C16001220161520282614161016281
:101CA00010224162C26181620721C162FFF774FAAA
:101CB000002800D0FEE710BD003001408C0300205A
:101CC00010B510480E4901604B21C9014160002147
:101CD0008160C160016181610C22C1614261016268
:101CE000232141620121490481624910C162C91066
:101CF000C163FFF7F3FC002800D0FEE710BD000031
:101D0000004400401C030020704700008307FF22AE
:101D1000DB0E9A408907090E994000280BDA00076C
:101D2000000F0838830808489B001818C3699343BC
:101D30000B43C3617047830804489B001B18186855
:101D4000904308431860704700ED00E000E400E0B5
:101D50007047000070B517490023CA681206120FB9
:101D600018D18A6B154CD500134A02D5126822404F
:101D700009E08E6B01252D072E438E6312688E6B52
:101D80002240AE438E63A24204D1032189038842DC
:101D900000D101230A48016849084900194301603C
:101DA0000068C007C00F984201D0012070BD00201C
:101DB00070BD0000001002400070004000180000DC
:101DC0000020024030B50B4D012805D010D902216A
:101DD000401E2970C4B208E00120287008E028786D
:101DE000022101F0AFF92870E4B2641E002CF6DC89
:101DF000004830BD23000020F8B506460D460020FF
:101E000000F0DCF805273F07002210213846FEF7D6
:101E10002BFD772000F010F9002405E0AA2000F047
:101E20000BF93055641CE4B2AC42F7D30122102107
:101E30003846FEF719FDF8BDF8B5044600200090BD
:101E400000F0BCF805252D07002210212846FEF7DA
:101E50000BFD152000F0F0F8204600F0EDF801220F
:101E600010212846FEF700FD012000F0A7F800240D
:101E70006E46AA2000F0E0F830556846641C4178B0
:101E8000E4B20170022CF4D3012210212846FEF79F
:101E9000EBFCF8BDFEB506461A480190054604461F
:101EA000074621341035343710212046FEF78DF9CE
:101EB00010210198FEF789F911212846FEF785F9CE
:101EC00011213846FEF781F910220F490198FEF7DB
:101ED00055F90D4910221031681CFEF74FF91322F5
:101EE0000A492046FEF74AF93B460095214630460E
:101EF000019AFFF79BFD207CF070607CF071A07C64
:101F0000F072FEBDE403002004370008B404002092
:101F10007CB50120254C00032080254D01220221A3
:101F20002846FEF7A1FC0220FEF7C8FB0022022192
:101F30002846FEF799FC0A20FEF7C0FB05252D0771
:101F4000002210212846FEF78FFC022000F074F8D2
:101F5000012000F071F8002000F06EF8012000F080
:101F60006BF8C92000F068F8C32000F065F8802005
:101F700000F062F8012210212846FEF775FC0220CD
:101F8000FEF79CFB00231A4619466846FEF77FFAC7
:101F9000FEF7F2FA20202080064840880649884251
:101FA00001D001207CBD00207CBD00003C00002051
:101FB00000040050D00700203844000070B50646E9
:101FC0001B48048805252D07002210212846FEF70E
:101FD0004BFC442000F030F80EE00122102128468E
:101FE000FEF742FC002210212846FEF73DFC44206B
:101FF00000F022F8641EA4B2C02000F01DF8FF28F3
:1020000002D0002CE9D109E0002C07D0002E04D129
:10201000012210212846FEF727FC70BD0122102165
:102020002846FEF721FC03490220087070BD00001D
:102030003C0000203600002001B582B07D20C000A9
:1020400000900123034A02A90348FFF703F901485E
:1020500000780EBD300000208C030020F8B51D462E
:1020600016460F460446FEF705FC31462646403626
:10207000009000291ED043E0681C1BD0002D05D025
:10208000FEF7F8FB0099401AA84213D9206841686E
:10209000E022914341602068026840218A43026047
:1020A00023E021680A6882430A6021680A680243C3
:1020B0000A601FE02068816838468843DCD124E04C
:1020C000681C1DD0002D06D0FEF7D4FB01460098F9
:1020D000081AA84214D920684268E0218A43426065
:1020E000206801684022914301600120A16A4003F9
:1020F0008142D6D001207074002030740320F8BDD6
:102100002068816838468843DAD00020F8BD7047DF
:1021100070B5054600242046FFF750FF0526360718
:10212000002210213046FEF79FFB04E0285DFFF7F8
:1021300083FF641CE4B2A878001DA042F6D80122F7
:1021400010213046FEF790FB70BD0000FEB5002662
:102150000446009633463246314668460196FEF7FD
:1021600096F9694688780979494DCA0702D0022252
:102170006A71EE8009070327002900DA2F71010731
:1021800005D5042068714348FFF7C2FFFEBDC106B4
:1021900032D5A878002824D0E978002905D030224B
:1021A00050430019C01CFFF727FEFEF7A3F93A4E73
:1021B000F07860703748FFF7ABFF7078212805D3BF
:1021C0007078262806D97078482803D27078334969
:1021D000085C2070E078C01EA070207920706F71BC
:1021E000FEBD0421E01CFFF707FEE0780328DCD9E0
:1021F000C01EC1B2E01DD6E7C1071CD0A8780028D8
:102200000CD0302148430019C01CFFF7F5FDE878D9
:102210003038E870A878401CA870FEBD0421E01C8E
:10222000FFF7EAFD2C21E01DFFF7E6FDE0782F38EF
:10223000E8700120F0E7810609D51648FFF768FF2E
:102240002E7006206871C00120180671FEBD80073F
:10225000FCD5297830290ED96878302148430019F7
:10226000FF30433000F07AFD6878401C68702878B1
:1022700030382870FEBD0029FCD0687830225043E9
:102280000019FF30433000F069FD2E70FEBD0000E4
:1022900032000020663B0008D0070020B739000854
:1022A00010B55348FFF734FF51481E38FFF730FF91
:1022B0004F48801DFFF72CFF4D484F30FFF728FF98
:1022C0004B485F30FFF724FF49481E30FFF720FFDF
:1022D00047481938FFF71CFF45486830FFF718FFDB
:1022E00043482530FFF714FF41488430FFF710FFC3
:1022F0003F489430FFF70CFF3D483A30FFF708FFA6
:102300003B481438FFF704FF39484130FFF700FF1E
:1023100037485730FFF7FCFE3548A430FFF7F8FE8A
:1023200033482C30FFF7F4FE31480C30FFF7F0FE55
:102330002F481230FFF7ECFE2D480F38FFF7E8FE6C
:102340002B48AD30FFF7E4FE2948B630FFF7E0FE3A
:102350002748C630FFF7DCFE2548D630FFF7D8FE09
:1023600023483330FFF7D4FE2148E630FFF7D0FE94
:102370001F487830FFF7CCFE1E48FFF7C9FE1C4807
:10238000F130FFF7C5FE1C48FFF7C2FE1A481030B7
:10239000FFF7BEFE18482030FFF7BAFE164830306F
:1023A000FFF7B6FE12484830FFF7B2FE1148283852
:1023B000FFF7AEFE0F482038FFF7AAFE0D48183889
:1023C000FFF7A6FE0B481038FFF7A2FE08481830AA
:1023D000FFF79EFE06480A38FFF79AFE0448401FA2
:1023E000FFF796FE03480838FEF737F810BD0000E7
:1023F0001D3A0008660000201E3B00087FB500263D
:102400000546029633463246314602A80396FEF749
:102410003EF80F4C2079012818D0412D00D94125D4
:102420000220FFF709FD0B48FFF772FE0320082189
:102430000090019108480023405D1A46194600F0BB
:1024400075F801206071A670E670002004B070BDC0
:1024500032000020583B000875390008FFB585B0F0
:102460000E460546002069461C4608800290034639
:1024700002460146039002A8FEF709F8284F387972
:1024800001284AD0FB2C00D9FB24412E00D941263B
:10249000002007E007992A18FF32095C0132401C2E
:1024A0009171C0B2A042F5D3E01CE87001212E71F9
:1024B0007040697148400321A87109026918002021
:1024C000019148710120FFF7B7FCE81DFF30009033
:1024D0003C2C08D920463C3838700421E81C00F018
:1024E0003DFC3C2106E0002038700421E81C00F08F
:1024F00035FC2146009800F031FC052078710199E7
:10250000012008710748FFF703FE0748221D805D80
:10251000302100F039F80020787009B0F0BD0000DB
:10252000320000205F3B000875390008FFB581B01C
:10253000144600200B9F0A9EFFF740FD05252D073E
:10254000002210212846FEF78FF93220FFF774FD94
:102550000198FFF771FD0298FFF76EFD0020FFF76D
:102560006BFDE0B2FFF768FD0498FFF765FD3046AC
:10257000FFF762FD3846FFF75FFD01221021284674
:10258000FEF772F905B0F0BDF8B5064614460F46E1
:102590000020FFF713FD05252D07002210212846F6
:1025A000FEF762F93120FFF747FD3046FFF744FDA3
:1025B0003846FFF741FD0020FFF73EFDE0B2FFF790
:1025C0003BFD012210212846FEF74EF9F8BD10B55B
:1025D000FEF756F9FEF7D4FF10BD000010B52348F2
:1025E00098B001680322D2029143C2148918016095
:1025F00001210220039110210090049109904004D0
:102600000B90000100240C900A946846FEF7CEFB64
:10261000002800D0FEE70F200D9003200E900F94AD
:102620001094012111940DA8FEF7AAFA002800D0F9
:10263000FEE7062012901494159412A8FEF7F8F9FC
:10264000002800D0FEE7FEF74FFB7D21C900FDF713
:102650004FFDFEF77DFF0420FEF758FF00221146D4
:10266000501EFEF75FF918B010BD0000007000406A
:1026700010480168821511430160C1680E4A11407B
:10268000C16001680D4A1140016081684908490034
:10269000816001680122920491430160C168FD22BA
:1026A00012049143C160002101610549C0038860A3
:1026B00070470000001002400C40FF88F6FFF6FE55
:1026C00000ED00E010B5818CC90707D001684A68A9
:1026D00001235B049A43836A1A434A60818C890709
:1026E00007D501684A6801231B049A43C36A1A4349
:1026F0004A60818C490707D501684A6801239B0419
:102700009A43036B1A434A60818C090707D5016815
:102710004A680123DB039A43436B1A434A60818C66
:10272000C90607D50268916801231B039943836B8F
:1027300019439160818C890607D501688A68012355
:102740005B039A43C36B1A438A60818C490612D596
:1027500003685A6801210905046C8A4322435A60C0
:10276000026C8A4207D10268516803235B059943D2
:10277000436C19435160818C090607D501684A688A
:102780000123DB04806C9A4302434A6010BD0000C1
:10279000F8B500260446C666FEF76CF805462068C4
:1027A0000068124F000709D501212B460022490578
:1027B0002046009700F0A3F900280DD1206800689A
:1027C00040070BD501212B460022890520460097A2
:1027D00000F095F9002801D00320F8BD20206034D6
:1027E0006072A07226720020F8BD0000FFFFFF019A
:1027F00010B5806A0022014640314A834A82FEF7C2
:10280000C4FE10BD01680A68FF2321339A430A60A1
:1028100001688A68520852008A6020216030817203
:10282000704770B50246403201466031938B8D7A15
:102830000C460168222D05D0886908221043886162
:10284000022070BD496A01268568360389B2B54207
:1028500002D10569002D0BD01940436D5D1C456503
:102860001970518B491E0904090C518307D015E0DA
:10287000456D19402980416D891C4165F1E701686A
:102880000A68FF2321339A430A6001688A68520864
:1028900052008A602021A172FEF7ECFF002070BD7B
:1028A000FEB50446016880682269E36910436269E5
:1028B000102700261A4310430A6835466D4B1A400C
:1028C00002430A6021684868032212039043E268C9
:1028D00010434860684A2168A069914201D0226A89
:1028E00010438A680B231B029A4302438A60634A9F
:1028F0002068634990420AD1C8680C2108402BD057
:1029000004282DD0082829D00C2810D10EE05A4ACE
:1029100090420CD1C9680320800201401CD01015E0
:10292000091A1DD0091A19D0814200D108270220A6
:10293000FDF7FCFF0190504B514922684039D813F4
:1029400000929A4235D1002F0CD0022F0DD0042FC7
:1029500012D0082F1CD113E00027E8E70227E6E792
:102960000427E4E7FEF7C6F908E00868C00601D5C9
:10297000444805E0444803E0FEF7DCF9002873D042
:10298000626851005118814202D81103814201D27C
:10299000012569E0010E0602500800233018594154
:1029A000FDF7BCFB03210902384A411A914259D96B
:1029B000EEE7E26982422DD13B0000F042FA0906BF
:1029C000080B24192424241F2400019812E0FEF788
:1029D000A1F90FE008686168C00602D548082C4AD2
:1029E00001E02C4A48088018FDF782FB86B20BE014
:1029F000FEF7A0F9616840004A08F4E76168012227
:102A000048081204EFE70125310909013007400F9A
:102A1000084327E03B0000F014FA09070A0D061DE1
:102A2000060606290600B3E7FEF764F914E0FEF790
:102A300071F911E008686168C00602D54A081148BA
:102A400001E011484A081018FDF752FB81B20098C6
:102A5000C16009E0FEF76EF961684A088018FDF769
:102A600047FB80B22168C8602846FEBD61684A08FD
:102A7000E9E70000F369FFEF004800400044004030
:102A80004010024000093D000024F400FFFC0F004C
:102A900000127A000048E8016921095C212901D06F
:102AA0000220704702464032518A002912D0012389
:102AB00081681B03994202D10169002915D0C16CBC
:102AC0004B1CC364006809788162508A401E5082A2
:102AD0000020704701680A6880239A430A600068F2
:102AE0000168402211430160F2E7C16C0368098864
:102AF000C905C90D9962C16C891CC164E5E7FFB5C0
:102B000081B017460E4604460A9D1DE0681C1BD086
:102B1000002D05D0FDF7AEFE0499401AA84213D946
:102B200020680168FF22A13291430160206881681A
:102B3000490849008160202060346072A072002042
:102B40002072032005B0F0BD2068C169304688437B
:102B500004D00020B842D9D00020F3E70120F9E7E3
:102B600010B50248FEF718FD10BD00001C03002040
:102B700030B50C460546002306E021782846641C43
:102B800000F005F85B1CDBB29342F6D330BD8162E6
:102B9000C1694906FCD5704710B51248017CCA07C7
:102BA00013D04908490004460174203CE11FA28D5E
:102BB000F9390D48FFF7DCFFA08DE21FC3B20B48C7
:102BC000F93A01780A48FFF749FC0A4801780D29CB
:102BD00007D100210170407801E0491C89B2884288
:102BE000FBD810BD9A020020004800403A000020A7
:102BF000CA0400207800002070B50D78CC1D002399
:102C0000F9340B268A1C0A2D2DD00DDC002D18D08E
:102C1000082D1DD0092D06D1032200281BD0202805
:102C20001CD963700B7070BD0B2D28D00C2DFAD100
:102C30004D78A8544878401C487063700D20087087
:102C400070BD6828FCD18870012060700820F6E70C
:102C5000C8700920F3E70B710E7002E008710A20BA
:102C600008704A7070BD4B7898544878401CC2B2C6
:102C70004A700879C01C8242F4D30E7070BD4B7844
:102C800098544878401C48700C20D8E7F8B51D4E81
:102C900030781D4C032808D11C491D488A78C91D6D
:102CA000FFF766FF2078FFF7A9FB307806281AD0D7
:102CB00030780027174D042819D03078022811D118
:102CC0002888FF21F53188420CD91E2000F012FA25
:102CD0001148FFF71DFAC82000F00CFA2078FFF722
:102CE0008DFB2F80F8BD2078FFF788FBF8BD2F8083
:102CF0001E2000F0FFF90848FFF70AFAC82000F08C
:102D0000F9F9F0E7370000203A000020CA0400205B
:102D10000048004038000020663B000810B503243E
:102D200001E0641EE4B2FFF7F3F8002802D0002CA3
:102D3000F7D105E0002C03D0FFF7B2FA002010BD58
:102D4000044901200871024602210348FDF78CFD69
:102D5000012010BD3200002000040050F8B50646E6
:102D60000D460020FFF72AF905273F070022102112
:102D70003846FDF779FD6620FFF75EF9002404E090
:102D8000305DFFF759F9641CE4B2AC42F8D301227C
:102D900010213846FDF768FDF8BDF8B515460E461A
:102DA0000746002409E0385D00F0CCF8020A610013
:102DB00072548919641C4870E4B2AC42F3D36806BB
:102DC000000EF8BD10B598B000242022114908A8C3
:102DD000FDF7D4F920216846FDF7F7F9202110A866
:102DE000FDF7F3F90922694608A8FFF7D6FF024666
:102DF00001E0641CE4B29442FBD310A9684600F0E1
:102E00000BF8002101E0491CC9B28142FBD318B084
:102E100010BD000034390008F8B515460F460646C7
:102E200000240AE06000315C801940780902084300
:102E300000F01EF93855641CE4B2AC42F2D36808C5
:102E4000F8BD30B47446641E2578641CAB4200D2D1
:102E50001D46635D5B00E31830BC184702E008C8FC
:102E6000121F08C1002AFAD170477047002001E004
:102E700001C1121F002AFBD17047F0B500231501D4
:102E80009A00AA188C5CC65C7440C4545418C218CA
:102E9000667817795B1C7E401671A678177ADBB2CC
:102EA0007E401672E478167B74401473042BE7D3CB
:102EB000F0BDF7B584B00D4600236C4600229900A2
:102EC00096008F18F618521C865DD2B2E655042A79
:102ED000F6D35B1CDBB2042BF0D30022204606990C
:102EE000FFF7CBFF0126684600F0D0FA684600F0F5
:102EF000B0FA684600F07CFA324668460699FFF759
:102F0000BCFF761CF6B20A2EEDD3684600F0BEFA7E
:102F1000684600F09EFA0A2268460699FFF7ADFF60
:102F200000200021820053188E003618491CE35CF3
:102F3000C9B2AB550429F6D3401CC0B20428F0D363
:102F400007B0F0BD70B5044600F007F80502200791
:102F5000000E00F002F8284370BD000900010121B5
:102F6000084301094209891882098918C90701D053
:102F700008210843010942098918C2098918C907AB
:102F800001D004210843010982098918C20989185E
:102F9000C90701D002210843704710B503780C78A7
:102FA0006340137043784C786340537083788C7817
:102FB00063409370C078C9784840D07010BDF0B5B8
:102FC0000C46054616460978007800F0BBF807461F
:102FD0006178E87800F0B6F84740A178A87800F06A
:102FE000B1F84740E178687800F0ACF847403770B6
:102FF0002178687800F0A6F807466178287800F014
:10300000A1F84740A178E87800F09CF84740E178C3
:10301000A87800F097F8474077702178A87800F0FA
:1030200091F807466178687800F08CF84740A178FD
:10303000287800F087F84740E178E87800F082F8D7
:103040004740B7702178E87800F07CF8074661784F
:10305000A87800F077F84740A178687800F072F817
:103060004740E178287800F06DF84740F770F0BDF0
:1030700070B50446000A00F008F805092D01E0B219
:1030800000F003F80009284370BD70B5020941093A
:10309000511884090B19C5085B19DD07C309C91844
:1030A0001219D218860843088919D218002D0ED09B
:1030B000C90706D0D10701D0102100E020214840E7
:1030C00070BDD10701D04021F9E70821F7E7C90712
:1030D00005D0D10701D08021F1E70421EFE7D10726
:1030E000EED00221EBE700000149086070470000C4
:1030F0000000002070B500247D260546F60003E0A0
:10310000304600F005F8641CAC42F9D370BD0000F5
:1031100070B50A4C002365690949A26909684843EA
:10312000A1699142FCD0914201D2521A01E06E1A7B
:10313000B218D3180A468342F2D370BD00E000E013
:103140000000002030B500231A461B25CC0700D014
:103150004340C4094006E401000E002C00D0684042
:10316000521C4908D2B2082AF0D3184630BDF7B530
:1031700084B00D4600236C460022990096008F18FB
:10318000F618521C865DD2B2E655042AF6D35B1CB3
:10319000DBB2042BF0D30A2220460699FFF76DFE1E
:1031A0000926684600F052F8684600F06DF832468D
:1031B00068460699FFF761FE684600F021F8761E22
:1031C0003606360EEDD1684600F040F8684600F04D
:1031D0005BF8002268460699FFF74FFE00200021A9
:1031E000820053188E003618491CE35CC9B2AB55F7
:1031F0000429F6D3401CC0B20428F0D307B0F0BDB8
:10320000FEB5054610A00068002401AE02AF009094
:10321000002081000919695C3154401CC0B20428A7
:10322000F7D302AA01A96846FFF7C9FE0020820071
:10323000395C1219401CC0B2A9540428F7D3641C8D
:10324000E4B2042CE4D3FEBD0E090D0BF0B5012150
:1032500000238C0026180FE0F27894460322A5186C
:103260002F18203F521EFF7F12064755120EF6D12F
:1032700062465B1C0255DBB28B42EDD3491CC9B2DE
:103280000429E5D3F0BD0000F0B50B4C002200216D
:1032900097007E18855D491C2B092D072D0F1B01FA
:1032A0005B19E35CC9B283550429F2D3521CD2B234
:1032B000042AECD3F0BD000034380008FEB50F46F8
:1032C0002C21029100218A00835CBB541318D2196F
:1032D0005C7854709C789470491CDB78C9B2D370C8
:1032E0000429F0D30426B000C5192C460190203CD7
:1032F000217F68460170617F4170A17F8170E17F0D
:10330000C170B0070DD1684600F098F8684600F02B
:10331000D7F8B008FEF756FD6A4601461046FFF79B
:103320003CFE6846217C0078761C41400198F6B24C
:1033300039546846617C4078414069706846A17C98
:1033400080784140A9706846E17CC0784140E970CE
:1033500002988642C7D3FEBDFDF79AFAFFF73EF901
:103360001C48C1680122D2031143C1601948403092
:10337000C168032292029143C2148918C1601020CF
:10338000FFF7B2FEFCF760FFFEF71AFCFEF778FCD1
:10339000FEF75CFCFEF794FC01220F490F48FEF794
:1033A00019FA0F48FDF72EF9FFF7B8FC0C48007822
:1033B000FFF724F8FEF7F4FBFCF79AFFFFF702FD96
:1033C000062208A10948FFF7D3FBFFF75FFCFFF7D0
:1033D000E3FBFAE70010024021000020AC020020CD
:1033E0003A000020313233343536000000480040C6
:1033F000FEB5054610A00068002401AE02AF0090A3
:10340000002081000919695C3154401CC0B20428B5
:10341000F7D302AA01A96846FFF7D1FD0020820078
:10342000395C1219401CC0B2A9540428F7D3641C9B
:10343000E4B2042CE4D3FEBD0201010302780021B2
:1034400043185B784354491CC9B20329F8D3C270AE
:103450007047F0B5012100238C0026180FE0025DB3
:1034600094460122A518475D2D18203D521CD2B26A
:10347000EF77042AF6D362465B1CF270DBB28B4214
:10348000EDD3491CC9B20429E5D3F0BDF0B50B4C0E
:103490000022002197007E18855D491C2B092D070D
:1034A0002D0F1B015B19E35CC9B283550429F2D3CC
:1034B000521CD2B2042AECD3F0BD0000343700080D
:1034C00010B5074B0021425C140912072401120FAA
:1034D000A2189A5C4254491CC9B20429F3D310BD06
:1034E0003437000800C1814001C0804101C08041E3
:1034F00000C1814001C0804100C1814000C18140C4
:1035000001C0804101C0804100C1814000C18140B3
:1035100001C0804100C1814001C0804101C08041A3
:1035200000C1814001C0804100C1814000C1814093
:1035300001C0804100C1814001C0804101C0804183
:1035400000C1814000C1814001C0804101C0804173
:1035500000C1814001C0804100C1814000C1814063
:1035600001C0804101C0804100C1814000C1814053
:1035700001C0804100C1814001C0804101C0804143
:1035800000C1814000C1814001C0804101C0804133
:1035900000C1814001C0804100C1814000C1814023
:1035A00001C0804100C1814001C0804101C0804113
:1035B00000C1814001C0804100C1814000C1814003
:1035C00001C0804101C0804100C1814000C18140F3
:1035D00001C0804100C1814001C0804101C08041E3
:1035E00000C1814000C0C101C30302C2C60607C7B3
:1035F00005C5C404CC0C0DCD0FCFCE0E0ACACB0B23
:10360000C90908C8D81819D91BDBDA1A1EDEDF1F52
:10361000DD1D1CDC14D4D515D71716D6D21213D342
:1036200011D1D010F03031F133F3F23236F6F737F2
:10363000F53534F43CFCFD3DFF3F3EFEFA3A3BFBE2
:1036400039F9F83828E8E929EB2B2AEAEE2E2FEF92
:103650002DEDEC2CE42425E527E7E62622E2E32302
:10366000E12120E0A06061A163A3A26266A6A76732
:10367000A56564A46CACAD6DAF6F6EAEAA6A6BABA2
:1036800069A9A86878B8B979BB7B7ABABE7E7FBFD2
:103690007DBDBC7CB47475B577B7B67672B2B373C2
:1036A000B17170B050909151935352929656579772
:1036B000559594549C5C5D9D5F9F9E5E5A9A9B5B62
:1036C00099595898884849894B8B8A4A4E8E8F4F12
:1036D0008D4D4C8C44848545874746868242438382
:1036E00041818040000001CC01D8001401F0003C71
:1036F000002801E401A0006C007801B40050019C96
:1037000001880044000000000000000000000000EC
:1037100000083399A4D9B2E8347FBEF714FA7432A2
:10372000A357C6AD0000000000000007000102031F
:1037300004050600637C777BF26B6FC53001672B55
:10374000FED7AB76CA82C97DFA5947F0ADD4A2AF95
:103750009CA472C0B7FD9326363FF7CC34A5E5F1A3
:1037600071D8311504C723C31896059A071280E251
:10377000EB27B27509832C1A1B6E5AA0523BD6B3A5
:1037800029E32F8453D100ED20FCB15B6ACBBE3915
:103790004A4C58CFD0EFAAFB434D338545F9027F01
:1037A000503C9FA851A3408F929D38F5BCB6DA21BA
:1037B00010FFF3D2CD0C13EC5F974417C4A77E3DE6
:1037C000645D197360814FDC222A908846EEB8143C
:1037D000DE5E0BDBE0323A0A4906245CC2D3AC62FF
:1037E0009195E479E7C8376D8DD54EA96C56F4EA0A
:1037F000657AAE08BA78252E1CA6B4C6E8DD741F1B
:103800004BBD8B8A703EB5664803F60E613557B9DD
:1038100086C11D9EE1F8981169D98E949B1E87E997
:10382000CE5528DF8CA1890DBFE6426841992D0F46
:10383000B054BB1652096AD53036A538BF40A39E96
:1038400081F3D7FB7CE339829B2FFF87348E43447F
:10385000C4DEE9CB547B9432A6C2233DEE4C950BDB
:1038600042FAC34E082EA16628D924B2765BA2493B
:103870006D8BD12572F8F66486689816D4A45CCC5A
:103880005D65B6926C704850FDEDB9DA5E1546572D
:10389000A78D9D8490D8AB008CBCD30AF7E4580563
:1038A000B8B34506D02C1E8FCA3F0F02C1AFBD036F
:1038B00001138A6B3A9111414F67DCEA97F2CFCE40
:1038C000F0B4E67396AC7422E7AD3585E2F937E8DB
:1038D0001C75DF6E47F11A711D29C5896FB7620E1D
:1038E000AA18BE1BFC563E4BC6D279209ADBC0FEFE
:1038F00078CD5AF41FDDA8338807C731B1121059AB
:103900002780EC5F60517FA919B54A0D2DE57A9F9C
:1039100093C99CEFA0E03B4DAE2AF5B0C8EBBB3C91
:1039200083539961172B047EBA77D626E169146315
:1039300055210C7D313233343536373839000000AB
:103940000000000000000000000000000000000077
:10395000000000000000000000000000010203045D
:1039600006070809030406080C10182030000000A0
:1039700000010203041842002701280229032A0437
:103980002B052C062D072E082F09300A310B320C7F
:10399000330D340E350F36103711381239133A14EF
:1039A0003B153C163D173E193F1A401B411C431D59
:1039B000441E451F462047020406080A0C0E10123A
:1039C0001416181A1C1E20222426282A2C2E3000F9
:1039D000323436383A3C3E40585858585858030507
:1039E00007090B0D0F11131517191B1D1F21232577
:1039F00027292B2D2F3133353701393B3D3F4111DD
:103A000000010360111201068111200135E011202F
:103A10000157001120014A3F111201000411000258
:103A200000520011010200000011200250840A110E
:103A300020025403071112020B3030111103000150
:103A400098F31120030A0006761120034C31002060
:103A5000112203017F001D1120033001CDA0112090
:103A60000338111515111203080A01001102040090
:103A70000305000A112004402A0CA422111005009D
:103A8000640A000A1211200C000300070C3500091B
:103A9000C9C3800005114008003D0EEEEE369D20A2
:103AA000FE11200C18010008038000202000E8000F
:103AB0005E11200C2405761A0572020000001281A6
:103AC0005E112005450300DE01001120055B400466
:103AD00006782011210C00A28126AF3FEEC8C7DB7B
:103AE000F2020811210C0C070315FC0F00A281261D
:103AF000AF3FEE11210C18C8C7DBF202080703150F
:103B0000FC0F00112307002C0E0B040C7303115043
:103B10000C0CFFFFFFFFFFFFFFFFFFFFFFFF115038
:103B20000C18FFFFFFFFFFFFFFFFFFFFFFFF11501C
:103B30000C24FFFFFFFFFFFFFFFFFFFFFFFF115000
:103B40000C30FFFFFFFFFFFFFFFFFFFFFFFF1150E4
:103B5000063CFFFFFFFFFFFF1101030003190911DE
:103B60000102000122001101030003000000000017
:103B7000903B000800000020780000005C2E000848
:103B8000083C000878000020680B00006C2E00083C
:103B9000000000000000000000000000A3A689262D
:103BA000AFA71329330AB1A215F8FBDB00002A5B8B
:103BB00000000002000000000000000080841E00E1
:103BC00000000000000000000000000000001112D2
:103BD000040D000106A211120411010002221112AB
:103BE000042100010682111204250100020A1300BB
:103BF00021000000000011500C001003040404FF19
:083C0000FFFFFFFFFFFF0000C2
:04000005080000C12E
:00000001FF
